:100000000C94FE030C942A040C942A040C942A04E5
:100010000C942A040C942A040C942A040C942A04A8
:100020000C942A040C942A040C942A040C942A0498
:100030000C942A040C942A040C942A040C942A0488
:100040000C942A040C942A040C942A040C942A0478
:100050000C942A040C942A040C942A040C94C20CC8
:100060000C942A040C94E90E0C94C90F0C942A04E5
:100070000C942A040C942A040C942A040C942A0448
:100080000C942A040C942A040C942A040C942A0438
:100090000C94210F0C9408100C942A040C942A043C
:1000A0000C942A040C942A040C942A040C942A0418
:1000B0000C942A040C942A040C942A040C942A0408
:1000C0000C942A040C942A040C942A040C94590FBE
:1000D0000C9447100C942A040C94910F0C948610E5
:1000E0000C942A0400002100240027002A002D007F
:1000F0003000330001010000040107010A01000083
:100100002200250028002B002E00310034000201BF
:100110000000050108010B0100002000230026005B
:1001200029002C002F00320000010000030106010D
:10013000090105050505070508080808020202026D
:100140000A0A080804040404010101010101010173
:100150000303030303030303040707070C0C0C0C3E
:100160000C0C0C0C02020202060606060606060627
:100170000B0B0B0B0B0B0B0B0102102020080810B4
:100180002040102040800201020108040201010207
:1001900004081020408080402010080402018004E0
:1001A000020180402010080402010804020101023B
:1001B0000408102040800102040810204080000044
:1001C000090A02080B0C0D070603040100000000D9
:1001D000000000000000000000000000000000001F
:1001E0000000000000000000000011100F000000DF
:1001F00000000000000000000000000000000000FF
:100200000000000000000000003E5B4F5B3E3E6BC4
:100210004F6B3E1C3E7C3E1C183C7E3C181C577DA0
:10022000571C1C5E7F5E1C00183C1800FFE7C3E7EC
:10023000FF0018241800FFE7DBE7FF30483A060EFE
:100240002629792926407F050507407F05253F5A45
:100250003CE73C5A7F3E1C1C08081C1C3E7F1422B5
:100260007F22145F5F005F5F06097F017F00668960
:10027000956A606060606094A2FFA29408047E04A6
:100280000810207E201008082A1C08081C2A0808CC
:100290001E101010100C1E0C1E0C30383E3830068C
:1002A0000E3E0E06000000000000005F0000000788
:1002B000000700147F147F14242A7F2A12231308B6
:1002C000646236495620500008070300001C224192
:1002D000000041221C002A1C7F1C2A08083E080836
:1002E00000807030000808080808000060600020E6
:1002F000100804023E5149453E00427F40007249C9
:100300004949462141494D331814127F102745456C
:1003100045393C4A49493141211109073649494982
:1003200036464949291E00001400000040340000F0
:100330000008142241141414141400412214080259
:10034000015909063E415D594E7C1211127C7F49CC
:100350004949363E414141227F4141413E7F494921
:1003600049417F090909013E414151737F0808084D
:100370007F00417F41002040413F017F081422411E
:100380007F404040407F021C027F7F0408107F3E78
:100390004141413E7F090909063E4151215E7F09E5
:1003A000192946264949493203017F01033F40404C
:1003B000403F1F2040201F3F4038403F6314081437
:1003C0006303047804036159494D43007F4141416F
:1003D0000204081020004141417F04020102044050
:1003E00040404040000307080020545478407F28D4
:1003F0004444383844444428384444287F385454CA
:10040000541800087E090218A4A49C787F080404EC
:100410007800447D40002040403D007F102844008B
:1004200000417F40007C047804787C08040478381C
:1004300044444438FC1824241818242418FC7C084C
:10044000040408485454542404043F44243C4040C9
:10045000207C1C2040201C3C4030403C442810287C
:10046000444C9090907C4464544C440008364100C5
:100470000000770000004136080002010204023C3F
:100480002623263C1EA1A161123A4040207A38540E
:100490005455592155557941215454784121555489
:1004A000784020545579400C1E52721239555555DA
:1004B00059395454545939555454580000457C41C5
:1004C0000002457D420001457C40F0292429F0F0DE
:1004D000282528F07C545545002054547C547C0A2F
:1004E000097F4932494949323248484832324A48FC
:1004F00048303A4141217A3A42402078009DA0A0FC
:100500007D39444444393D4040403D3C24FF24244F
:10051000487E4943662B2FFC2F2BFF0929F620C06C
:10052000887E090320545479410000447D413048BD
:10053000484A32384040227A007A0A0A727D0D1900
:10054000317D2629292F28262929292630484D4062
:1005500020380808080808080808382F10C8ACBA5E
:100560002F102834FA00007B000008142A142222DD
:10057000142A1408AA005500AAAA55AA55AA0000D0
:1005800000FF00101010FF00141414FF001010FFE3
:1005900000FF1010F010F0141414FC001414F700F5
:1005A000FF0000FF00FF1414F404FC141417101FC4
:1005B00010101F101F1414141F00101010F0000052
:1005C00000001F101010101F10101010F01000006D
:1005D00000FF101010101010101010FF100000007D
:1005E000FF140000FF00FF00001F10170000FC04B4
:1005F000F414141710171414F404F40000FF00F797
:1006000014141414141414F700F7141414171410F9
:10061000101F101F141414F4141010F010F0000028
:100620001F101F0000001F14000000FC140000F049
:1006300010F01010FF10FF141414FF141010101FEE
:1006400000000000F010FFFFFFFFFFF0F0F0F0F0FF
:10065000FFFFFF0000000000FFFF0F0F0F0F0F381C
:10066000444438447C2A2A3E147E02020606027E56
:10067000027E0263554941633844443C04407E2075
:100680001E2006027E020299A5E7A5991C2A492A86
:100690001C4C7201724C304A4D4D30304878483015
:1006A000BC625A463D3E494949007E0101017E2A0D
:1006B0002A2A2A2A44445F444440514A4440404440
:1006C0004A51400000FF0103E080FF000008086B72
:1006D0006B083612362436060F090F06000018186C
:1006E0000000001010003040FF0101001F01011E3A
:1006F00000191D1712003C3C3C3C00000000000F9C
:100700000180961180FFB103012C2DB203012C2D25
:10071000B306012C2D012C2DB40107C003A20284C5
:10072000C101C5C2020A00C3028A2AC4028AEEC5F8
:10073000010E20003601C83A0105022A0400020019
:10074000812B04000100A0022A040000007F2B047A
:100750000000009F04E010021C07123732292D29E7
:10076000252B3900010310E110031D07062E2C294B
:100770002D2E2E373F0000021013800A29806412AC
:100780000180321180FF3A81050AB1830006030A15
:10079000360108B6021502B40100C08202700AC117
:1007A0000105C2020102C5823C380AFC021115E0B3
:1007B0001009160920211B131917151E2B040502F9
:1007C0000EE1900B14081E221D181E1B1A242B0666
:1007D00006020F0A2A04000200812B040002008195
:1007E00013800A2980FF7C3C3E5E2B3D3F2F5B5DE2
:1007F0003B2C2A225C001005F011F81B11241FBEAF
:10080000CFEFD1E2DEBFCDBF00E00CBF13E0A0E030
:10081000B2E0E8E6F2E600E00BBF02C007900D92FE
:10082000A030B107D9F71FE0A0E0B3E001C01D92EE
:10083000AF33B107E1F717E0CCEFD7E004C0229760
:10084000FE010E942E31C63FD107C9F70E94300B2E
:100850000C9478300C9400006F927F928F929F924C
:10086000AF92BF92CF92DF92EF92FF920F931F93BE
:10087000CF93DF934C01FA01EE0FFF1FEE0FFF1F26
:10088000E80FF91F9B0121503040220F331F220F28
:10089000331F280F391F4081518112810381E901E3
:1008A00088819981AA81BB8180839183A283B3834C
:1008B000488359831A830B833B01089461087108AC
:1008C000625070405B01CC24B7FCC094DC2CB901B1
:1008D000EE24FF248701AE14BF04C006D10621F424
:1008E000F40100E010E05EC0E701CC0FDD1FCC0F8B
:1008F000DD1FC80DD91DFB01228133818A819B81B7
:100900002817390730F00894E11CF11C011D111D56
:10091000E2CFF501EE0FFF1FEE0FFF1FE80DF91DEF
:10092000828193812817390730F40894A108B1080F
:10093000C108D108D0CF2081318142815381888183
:100940009981AA81BB8180839183A283B383288309
:1009500039834A835B83BFCFEF0122813381349691
:10096000DB0112968D919C91139782179307C0F427
:100970002C9111963C91119712964C9112971396C7
:100980005C9188819981AA81BB81FB0180839183DD
:10099000A283B383288339834A835B83380105C0EC
:1009A0000F5F1F4F06151705BCF2C301DF91CF91F2
:1009B0001F910F91FF90EF90DF90CF90BF90AF907D
:1009C0009F908F907F906F900895EF92FF920F937A
:1009D0001F93CF93DF937C01EB01C230D105CCF0A4
:1009E000AE0155954795C701BE010E942C048C01AC
:1009F000C701B8010E94E504C8010196880F991F3C
:100A0000880F991FE80EF91E00951095C00FD11F91
:100A1000E4CFDF91CF911F910F91FF90EF90089558
:100A200089EF97E066E047E028E00E949C1A109268
:100A30002A0810922B0810922E0810923008089560
:100A4000AF92BF92CF92DF92EF92FF920F931F93DC
:100A500080918D0290918E02833091058CF44091AB
:100A60009C0250919D021416150654F4403851050D
:100A7000B4F088E041305807CCF4405850401BC0D7
:100A80008D3791050CF140919C0250919D0287E0B9
:100A900040385807CCF48FEF403858071CF440E03A
:100AA00050E009C087E0413058071CF040E857E0AB
:100AB00002C040585F4F50939D0240939C0220918A
:100AC0009E0230919F023BC080918F0290919002D4
:100AD000833091058CF420919E0230919F02121672
:100AE000130654F4203A3105B4F088E02130380779
:100AF000CCF4205A30401BC08D399105ECF1209187
:100B00009E0230919F0287E020363807ACF58FEFC8
:100B1000203638071CF420E030E009C086E0213C94
:100B200038071CF020E637E002C020563F4F3093D4
:100B30009F0220939E0240919C0250919D0286E963
:100B400092E069EF77E000E010E0EE24FF24E0E8B7
:100B5000CE2ED12CB0EAAB2EB12C0E94400B80E4FB
:100B600090E090938E0280938D0280E590E09093C8
:100B7000900280938F029BC000919102109192028B
:100B800002501040E0919302F0919402329740910C
:100B90009C0250919D02400F511F20919E02309166
:100BA0009F022E0F3F1F86E992E069EF77E07F01F9
:100BB000A5E0CA2ED12CF5E0AF2EB12C0E94400B3F
:100BC00060918D0270918E0200918F0210919002BF
:100BD000025010409B012E5F3F4F89EF97E062501B
:100BE0007040A801E12CE8EFFE2E0E9402146091F3
:100BF0008D0270918E0200918F021091900201502F
:100C000010409B012E5F3F4F89EF97E0625070408C
:100C1000A8010E94021460918D0270918E020091D1
:100C20008F02109190029B012E5F3F4F89EF97E05A
:100C300062507040A8010E94021460918D02709170
:100C40008E0200918F02109190020F5F1F4F9B0147
:100C50002E5F3F4F89EF97E062507040A8010E94DD
:100C6000021460918D0270918E0200918F0210919A
:100C700090020E5F1F4F9B012E5F3F4F89EF97E061
:100C800062507040A8010E94021480918D029091E0
:100C90008E02909392028093910280918F029091A4
:100CA00090029093940280939302109295021F9168
:100CB0000F91FF90EF90DF90CF90BF90AF9008958D
:100CC000CF93DF9380E00E948E0CEC0181E00E94C4
:100CD0008E0C2091000330910103821B930B9C0129
:100CE00097FF04C022273327281B390B21343105F5
:100CF000E4F068E270E00E94DC3080918D02909117
:100D00008E02680F791F623071051CF462E070E09A
:100D100005C06E37710514F06DE770E070938E02B8
:100D200060938D0281E080939502809102039091FF
:100D300003039E01281B390BC90137FF04C022277A
:100D40003327281B390B21343105E4F068E270E0C9
:100D50000E94DC3080918F0290919002680F791F81
:100D6000623071051CF462E070E005C06E397105F7
:100D700014F06DE970E07093900260938F0281E04F
:100D800080939502DF91CF910895AF92BF92CF9259
:100D9000DF92EF92FF920F931F9340919C0250912C
:100DA0009D0220919E0230919F0286E992E069EFB8
:100DB00077E000E010E0EE24FF24A0E8CA2ED12C5A
:100DC000F0EAAF2EB12C0E94400B0E9420050E9439
:100DD0000A0D8B0189E00E94B90E892B79F481E01C
:100DE00090E090930603809305031F910F91FF906D
:100DF000EF90DF90CF90BF90AF9008950E94600673
:100E000080919502882311F00E9420050E940A0D0E
:100E1000CB01801B910B0A97D4F6065F1F4F061B70
:100E2000170BB801882777FD8095982F0E94180D21
:100E3000CECF80E00E948E0C2091020330910303FC
:100E4000821B930B9C0197FF04C022273327281B8A
:100E5000390B213431056CF021E02093040318167E
:100E600019061CF4209308030895892B11F0209390
:100E700007030895CF92DF92EF92FF920F931F9393
:100E800089EFE82E87E0F82EC7016FEF7FEF40E093
:100E900050E00E94D71640910B0350910C0303E0E1
:100EA000440F551F0A95E1F7C70160E070E00E940A
:100EB000D11680910B0390910C0317E3C12ED12C16
:100EC0008C9DB0018D9D700D9C9D700D11240DE0C9
:100ED00013E0600F711FC7010E948513C70160E016
:100EE00070E04FEF5FEF0E94D716409109035091D9
:100EF0000A03B3E0440F551FBA95E1F7C70160E05C
:100F000070E00E94D1168091090390910A039C0120
:100F10002C9DC0012D9D900D3C9D900D1124080F1E
:100F2000191FC701B8010E9485131F910F91FF90EF
:100F3000EF90DF90CF900895CF92DF92EF92FF92E3
:100F40000F931F93CF93DF93182F092F7B0189EF06
:100F500097E060E00E94DD16212F302FC9018C013F
:100F6000C0E0D0E097E3C92ED12C2DC089EF97E0E7
:100F700060E070E0AE010E94D1168091090390916B
:100F80000A030817190739F489EF97E060E070E069
:100F90004FEF5FEF06C089EF97E06FEF7FEF40E024
:100FA00050E00E94D7160C9DB0010D9D700D1C9D48
:100FB000700D1124635F7C4F89EF97E00E948513C9
:100FC0000F5F1F4F2896E016F10684F6DF91CF9150
:100FD0001F910F91FF90EF90DF90CF900895AF9207
:100FE000BF92CF92DF92EF92FF920F931F9380E018
:100FF00090E063E170E00E949C070E9419078091D5
:101000000403882329F12091090330910A033093C6
:101010000C0320930B0380910803882319F0C90166
:10102000019606C080910703882351F0C9014396B9
:1010300064E170E00E94DC3090930A03809309031E
:101040000E943A07109204031092070310920803BB
:1010500064E670E080E090E00E94180D89E00E9454
:10106000B90E892B51F6A0910903B0910A03FD0135
:1010700033E0EE0FFF1F3A95E1F7E75AF84FE080B3
:10108000F1800281138180E4E816F1040105110565
:101090001CF4E0E0F0E00FC081ECE81687E0F80611
:1010A00080E0080780E018071CF0E0E8F7E003C0E4
:1010B000F701E054F040F0939D02E0939C0223E09E
:1010C000AA0FBB1F2A95E1F7A35AB84F2D913D9166
:1010D0004D915C9120353105410551051CF460E0CE
:1010E00070E00EC0213B87E0380780E0480780E0D1
:1010F00058071CF060E677E003C0B9016055704006
:1011000070939F0260939E02CF01AA2797FDA0953E
:10111000BA2F57016801A81AB90ACA0ADB0AD60110
:10112000C50182309105A105B1051CF4E2E0F0E0B3
:101130000AC08E379105A105B10524F08DE790E036
:10114000A0E0B0E0FC01F0938E02E0938D02CB01B1
:10115000AA2797FDA095BA2F69017A01C81AD90A62
:10116000EA0AFB0AD701C60182309105A105B10543
:101170001CF4E2E0F0E00AC08E399105A105B1054A
:1011800024F08DE990E0A0E0B0E0FC01F093900243
:10119000E0938F02109206031092050310920A0347
:1011A0001092090310920C0310920B031F910F91E0
:1011B000FF90EF90DF90CF90BF90AF900895AF92E7
:1011C000BF92CF92DF92EF92FF920F931F9300D0C6
:1011D0000F9220E038E040E050E0EDB7FEB7218309
:1011E00032834383548322EC30ED41E550E0E9E162
:1011F000EE2EEFE7FE2EE1E50E2F112DAA24BB24E3
:1012000065010E949B130F900F900F900F90CB01E0
:101210001F910F91FF90EF90DF90CF90BF90AF9014
:101220000895AF92BF92CF92DF92EF92FF920F9309
:101230001F9300D00F9220E038E040E050E0EDB77F
:10124000FEB7218332834383548324E337E842E5A6
:101250005FEFF8E8EF2EF0E1FF2EF3E50F2FFFEF41
:101260001F2FAA24BB2465010E949B130F900F908F
:101270000F900F90CB011F910F91FF90EF90DF9097
:10128000CF90BF90AF900895CF92DF92EF92FF92F0
:101290000F931F93CF93DF93D82EC92EEB01CB0171
:1012A00068E070E00E94DC307B010027F7FC0095CD
:1012B000102F80E099E0ADE3B0E0E80EF91E0A1FC0
:1012C0001B1F8091320A9091330AA091340AB09189
:1012D000350AE816F9060A071B0749F185E298E086
:1012E000B801A70122E338E00E944D218823B1F321
:1012F000CE0168E070E00E94DC30FC01B6E0EE0F49
:10130000FF1FBA95E1F78D2D9C2D9C01D901EE5C54
:10131000F74F80E401900D928150E1F7E092320A9C
:10132000F092330A0093340A1093350A16C0CE01A6
:1013300068E070E00E94DC30FC01A6E0EE0FFF1FC9
:10134000AA95E1F78D2D9C2D9C01D901EE5CF74FFC
:1013500080E401900D928150E1F7DF91CF911F91D0
:101360000F91FF90EF90DF90CF9008954F925F9292
:101370006F927F928F929F92AF92BF92CF92DF92A5
:10138000EF92FF920F931F93DF93CF93CDB7DEB70A
:10139000C85ED0410FB6F894DEBF0FBECDBFFE01D0
:1013A000EF5BFF4F88EA90E1DF019C011D92215025
:1013B0003040E1F74F015F01CC24DD242E01089479
:1013C000411C511CC201B6010E9444096D817E81FD
:1013D0008F8198850E9411093C0169817A818B81F6
:1013E0009C810E94DF08D501CD92DC9220919E0263
:1013F00030919F0240918F0250919002240F351F2F
:1014000079010027F7FC0095102FAA2797FDA095DA
:10141000BA2FE81AF90A0A0B1B0B17FF08C0109520
:101420000095F094E094E11CF11C011D111D8091C8
:101430009C0290919D0220918D0230918E02820F2C
:10144000931F9C01442737FD4095542FC301AA27C1
:1014500097FDA095BA2F281B390B4A0B5B0B57FF42
:1014600007C050954095309521953F4F4F4F5F4FA6
:10147000C701820F931FF501938382830894C11CD7
:10148000D11C24E030E0A20EB31E3AE2C31634E0D1
:10149000D30609F097CFCE018F5B9F4F6AE274E0CD
:1014A0000E94E50429E5E22E27E0F22E00E010E09C
:1014B0003E010894611C711C97E3A92EB12C8AE0AF
:1014C000C82ED12CCC0EDD1ED4016D917C91C301B0
:1014D0000E9444090A9DC0010B9D900D1A9D900D1C
:1014E0001124835F9C4FB6010E9493306D817E81F1
:1014F0008F8198850E941109AA2797FDA095BA2F80
:10150000F70180839183A283B38369817A818B8180
:101510009C810E94DF08AA2797FDA095BA2FF701AA
:1015200084839583A683B7830F5F1F4F24E030E049
:10153000820E931E88E090E0E80EF91E043111053A
:1015400019F6C851DF4E0FB6F894DEBF0FBECDBFFF
:10155000CF91DF911F910F91FF90EF90DF90CF908F
:10156000BF90AF909F908F907F906F905F904F90C3
:10157000089589EF97E060E070E00E94C8180E942B
:10158000B6090E94EF070895EF920F930E94710D24
:101590008FE59CE040E855E260E070E00E94C510F5
:1015A00081E00E948E0C909301038093000380E001
:1015B0000E948E0C909303038093020389E060E005
:1015C0000E94D30D89E061E00E94860E89EF97E0CA
:1015D00062E00E946E1A89EF97E060E070E00E947E
:1015E000C8188FE59CE060E072E00E9485138BEDE7
:1015F0009CE065E04FEF2FEF0FEF0E946F1E8823F6
:1016000039F48FE59CE068E172E00E948813FFCF17
:101610008FE59CE060E272E00E9488138FE59CE019
:1016200064E272E00E94851385E298E061E045E0A3
:101630002FEF0FEFEE24EA940E945D21882339F406
:101640008FE59CE068E172E00E948813FFCF8FE590
:101650009CE060E272E00E9488130F91EF90089581
:101660000E94C40A8091050390910603009719F423
:101670000E94C506F7CF0197A9F70E94B90AF2CFD9
:101680002F923F924F925F926F927F928F929F9292
:10169000AF92BF92CF92DF92EF92FF920F931F9380
:1016A000DF93CF93CDB7DEB7C654D0400FB6F894D2
:1016B000DEBF0FBECDBF98AF8FAB7AAF69AF5CAF67
:1016C0004BAF4901F02E1601BEAEADAE8DB79EB741
:1016D00021969FAF8EAF2197CE0101960E94BD1A31
:1016E000AFA9B8AD4D915C91CE014C966BED7CE00D
:1016F00021E00E943D1D8E8D9F8D9C838B8388A150
:1017000099A1AAA1BBA18D839E83AF83B8878CA129
:101710009DA1AEA1BFA189879A87AB87BC87DE0157
:101720001D96FE01B8968DE001900D928150E1F773
:101730008DA99EA99B8F8A8F2E010894411C511C54
:10174000C2010E940D1B182FCE014C960E94D01A88
:101750001123A1F48FE59CE060E672E00E948513FE
:10176000EFA9F8AD608171818FE59CE00E9485133F
:101770008FE59CE067E20E945913A9C02F2D2150EC
:10178000220D0E2D0150FDAD0F0F89AD9AAD6F2DBD
:101790004E2D0E9472173101660C771C5401CC2427
:1017A000DD2488249924C201542C492EABADBCAD54
:1017B000CD01A0E0B0E027968CAF9DAFAEAFBFAF3C
:1017C000279778C0FDB6EEB62296FFAE22972396F5
:1017D000EFAE23978DB79EB7861997090FB6F89489
:1017E0009EBF0FBE8DBF0DB71EB70F5F1F4FAFA9B6
:1017F000B8AD12962D913C91139740E050E0C60190
:10180000B5010E94A930AB01BC0127968CAD9DADFE
:10181000AEADBFAD2797480F591F6A1F7B1F440FFE
:10182000551F661F771F852D942D0E942C1B852D1B
:10183000942DB801A3010E943E1B8615970519F44B
:10184000EE24FF2420C08FE59CE061E772E00E9457
:101850008813852D942D0E941A1B8F2D9E2D9C017F
:101860000FB6F8943EBF0FBE2DBF31C0D8017C919A
:1018700011966C9189AD9AAD0E94B6170894E11C3F
:10188000F11C0E5F1F4FE214F30480F322968FAD1C
:10189000229723969FAD23979C010FB6F8943EBFE5
:1018A0000FBE2DBF0894811C911C0894A11CB11C73
:1018B000C11CD11CEDADFEAD8E169F0608F482CF83
:1018C000852D942D0E941A1B852D942D02C0CE01CA
:1018D00001960E94D01A21968EAD9FAD21970FB62A
:1018E000F8949EBF0FBE8DBFCA5BDF4F0FB6F89452
:1018F000DEBF0FBECDBFCF91DF911F910F91FF9043
:10190000EF90DF90CF90BF90AF909F908F907F909F
:101910006F905F904F903F902F900895382F8633AF
:1019200008F0365320917B00832F86958695869507
:1019300090E08170907043E0880F991F4A95E1F71D
:10194000277F282B20937B0037708091A0028295FF
:10195000880F880F807C832B80937C0080917A0095
:10196000806480937A0080917A0086FDFCCF20917C
:10197000780040917900942F80E030E0282B392BBB
:10198000C90108951F920F920FB60F9211242F9341
:101990003F938F939F93AF93BF9380913A0A909117
:1019A0003B0AA0913C0AB0913D0A30913E0A019653
:1019B000A11DB11D232F2D5F2D3720F02D5701962E
:1019C000A11DB11D20933E0A80933A0A90933B0AD1
:1019D000A0933C0AB0933D0A8091360A9091370A51
:1019E000A091380AB091390A0196A11DB11D8093CA
:1019F000360A9093370AA093380AB093390ABF91F8
:101A0000AF919F918F913F912F910F900FBE0F90AB
:101A10001F9018958FB7F89420913A0A30913B0A9D
:101A200040913C0A50913D0A8FBFB901CA01089507
:101A30009B01AC017FB7F8948091360A9091370AE8
:101A4000A091380AB091390A66B5A89B05C06F3FCE
:101A500019F00196A11DB11D7FBFBA2FA92F982F94
:101A60008827860F911DA11DB11D62E0880F991F67
:101A7000AA1FBB1F6A95D1F7BC012DC0FFB7F89410
:101A80008091360A9091370AA091380AB091390AAC
:101A9000E6B5A89B05C0EF3F19F00196A11DB11D49
:101AA000FFBFBA2FA92F982F88278E0F911DA11D38
:101AB000B11DE2E0880F991FAA1FBB1FEA95D1F75D
:101AC000861B970B885E9340C8F2215030404040FF
:101AD000504068517C4F211531054105510571F683
:101AE0000895789484B5826084BD84B5816084BD96
:101AF00085B5826085BD85B5816085BDEEE6F0E087
:101B0000808181608083E1E8F0E0108280818260E2
:101B10008083808181608083E0E8F0E08081816063
:101B20008083E1EBF0E0808184608083E0EBF0E093
:101B3000808181608083E1E9F0E080818260808340
:101B4000808181608083E0E9F0E080818160808332
:101B5000E1EAF0E08081826080838081816080831F
:101B6000E0EAF0E0808181608083E1E2F1E0808161
:101B700082608083808181608083E0E2F1E0808107
:101B800081608083EAE7F0E08081846080838081E7
:101B9000826080838081816080838081806880838F
:101BA0001092C1000895CF93DF93482F50E0CA01EF
:101BB00088589E4FFC0134914E5C5E4FFA0184912F
:101BC000882369F190E0880F991FFC01EC51FF4FC9
:101BD000A591B491FC01E250FF4FC591D4916623C9
:101BE00051F42FB7F8948C91932F909589238C936F
:101BF000888189230BC0623061F42FB7F8948C91EF
:101C0000932F909589238C938881832B88832FBF72
:101C100006C09FB7F8948C91832B8C939FBFDF9164
:101C2000CF910895893009F449C08A30A0F48430F6
:101C300051F1853040F4823079F1833000F5813004
:101C400009F063C026C0873079F1883098F5863076
:101C500009F05BC025C08D3009F442C08E3028F4F5
:101C60008B30B1F18C30C0F52DC0803109F442C009
:101C7000813109F445C08F3009F047C037C08091E9
:101C800080008F7703C0809180008F7D80938000DB
:101C9000089584B58F7702C084B58F7D84BD089583
:101CA0008091B0008F7703C08091B0008F7D8093CA
:101CB000B0000895809190008F7707C080919000C8
:101CC0008F7D03C080919000877F8093900008955E
:101CD0008091A0008F7707C08091A0008F7D03C006
:101CE0008091A000877F8093A000089580912001BB
:101CF0008F7703C0809120018F7D8093200108950C
:101D000080912001877F809320010895FF920F9397
:101D10001F93F62E482F50E0CA0182549E4FFC01BB
:101D20002491CA0188589E4FFC0114914E5C5E4F6D
:101D3000FA0104910023C9F0222319F0822F0E9496
:101D4000120EE02FF0E0EE0FFF1FE250FF4FA591C3
:101D5000B4919FB7F894FF2021F48C9110958123C2
:101D600002C08C91812B8C939FBF1F910F91FF908C
:101D700008950F931F93482F50E0CA0182549E4F3D
:101D8000FC012491CA0188589E4FFC0104914E5CCD
:101D90005E4FFA011491112319F420E030E015C0D0
:101DA000222319F0822F0E94120E812F90E0880FBB
:101DB000991F885E9E4FFC01A591B4918C9120E003
:101DC00030E0802311F021E030E0C9011F910F9134
:101DD00008951F920F920FB60F920BB60F92112417
:101DE0002F933F934F938F939F93EF93FF93409144
:101DF000C60020917F0A3091800A2F5F3F4F2F73DA
:101E000030708091810A9091820A2817390759F021
:101E1000E0917F0AF091800AE15CF54F40833093B6
:101E2000800A20937F0AFF91EF919F918F914F91AC
:101E30003F912F910F900BBE0F900FBE0F901F90F0
:101E400018951F920F920FB60F920BB60F92112496
:101E50002F933F934F938F939F93EF93FF934091D3
:101E6000CE002091070B3091080B2F5F3F4F2F734F
:101E700030708091090B90910A0B2817390759F09F
:101E8000E091070BF091080BE953F54F4083309335
:101E9000080B2093070BFF91EF919F918F914F912A
:101EA0003F912F910F900BBE0F900FBE0F901F9080
:101EB00018951F920F920FB60F920BB60F92112426
:101EC0002F933F934F938F939F93EF93FF93409163
:101ED000D60020918F0B3091900B2F5F3F4F2F73C7
:101EE00030708091910B9091920B2817390759F01F
:101EF000E0918F0BF091900BE15BF44F40833093B6
:101F0000900B20938F0BFF91EF919F918F914F91A9
:101F10003F912F910F900BBE0F900FBE0F901F900F
:101F200018951F920F920FB60F920BB60F921124B5
:101F30002F933F934F938F939F93EF93FF934091F2
:101F400036012091170C3091180C2F5F3F4F2F73E3
:101F500030708091190C90911A0C2817390759F09C
:101F6000E091170CF091180CE952F44F4083309334
:101F7000180C2093170CFF91EF919F918F914F9127
:101F80003F912F910F900BBE0F900FBE0F901F909F
:101F900018951F920F920FB60F920BB60F92112445
:101FA0002F933F938F939F93EF93FF932091C30AB7
:101FB0003091C40A8091C50A9091C60A2817390742
:101FC00031F48091C1008F7D8093C10014C0E091F5
:101FD000C50AF091C60AED57F54F20818091C50AD8
:101FE0009091C60A01968F7390709093C60A809361
:101FF000C50A2093C600FF91EF919F918F913F9169
:102000002F910F900BBE0F900FBE0F901F90189541
:102010001F920F920FB60F920BB60F9211242F93AF
:102020003F938F939F93EF93FF9320914B0B3091AE
:102030004C0B80914D0B90914E0B2817390731F4C2
:102040008091C9008F7D8093C90014C0E0914D0B31
:10205000F0914E0BE55FF44F208180914D0B9091F4
:102060004E0B01968F73907090934E0B80934D0B97
:102070002093CE00FF91EF919F918F913F912F91EF
:102080000F900BBE0F900FBE0F901F9018951F92D0
:102090000F920FB60F920BB60F9211242F933F930E
:1020A0008F939F93EF93FF932091D30B3091D40B99
:1020B0008091D50B9091D60B2817390731F4809178
:1020C000D1008F7D8093D10014C0E091D50BF091A9
:1020D000D60BED56F44F20818091D50B9091D60B05
:1020E00001968F7390709093D60B8093D50B2093AD
:1020F000D600FF91EF919F918F913F912F910F907B
:102100000BBE0F900FBE0F901F9018951F920F924D
:102110000FB60F920BB60F9211242F933F938F930C
:102120009F93EF93FF9320915B0C30915C0C809117
:102130005D0C90915E0C2817390731F480913101C4
:102140008F7D8093310114C0E0915D0CF0915E0CA5
:10215000E55EF34F208180915D0C90915E0C0196BD
:102160008F73907090935E0C80935D0C209336017A
:10217000FF91EF919F918F913F912F910F900BBE07
:102180000F900FBE0F901F901895AF92BF92DF92E5
:10219000EF92FF920F931F93CF93DF93EC017A019D
:1021A0008B01DD24403081EE580780E0680780E035
:1021B000780711F0DD24D39491E0A92EB12CEC899D
:1021C000FD89DD2069F0C5010E8C02C0880F991FC2
:1021D0000A94E2F7808360E079E08DE390E005C047
:1021E000108260E874E88EE190E0A80197010E94F7
:1021F000EF3021503040404050405695479537953C
:10220000279580E12030380720F0DD2011F0DD2413
:10221000D6CFE889F9893083EA89FB892083EE8962
:10222000FF89408121E030E0C9010A8C02C0880F9B
:10223000991F0A94E2F7482B4083EE89FF89408179
:10224000C9010B8C02C0880F991F0A94E2F7482B32
:102250004083EE89FF894081C9010C8C02C0880F40
:10226000991F0A94E2F7482B4083EE89FF89808109
:102270000D8C02C0220F331F0A94E2F72095282309
:102280002083DF91CF911F910F91FF90EF90DF900E
:10229000BF90AF900895DC011C96ED91FC911D97C5
:1022A000E05CFF4F2191319180819181281B390B96
:1022B0002F733070C9010895DC011C96ED91FC91DB
:1022C0001D97E05CFF4F20813181E054F040DF0139
:1022D000AE5BBF4F8D919C9111972817390719F468
:1022E0002FEF3FEF07C08D919C91E80FF91F808180
:1022F000282F30E0C9010895DC011C96ED91FC9176
:102300001D97E05CFF4F20813181E054F040DF01F8
:10231000AE5BBF4F8D919C9111972817390719F427
:102320002FEF3FEF10C08D919C911197E80FF91F8F
:1023300020818D919C91119701968F7390701196C9
:102340009C938E9330E0C9010895FC0186859785A2
:10235000DC01A05CBF4FFC01EE5BFF4F2D913C9177
:1023600011978081918128173907C1F70895CF937C
:10237000DF93EC01EE85FF85E05CFF4F208131812A
:10238000E054F0402F5F3F4F2F733070DF01AE5BA2
:10239000BF4F8D919C91119728173907D1F3E05CBD
:1023A000FF4F80819181E054F040E80FF91F608376
:1023B000EE85FF85E05CFF4F31832083EE89FF8946
:1023C000208181E090E00D8C02C0880F991F0A9453
:1023D000E2F7282B208381E090E0DF91CF910895F0
:1023E0001F931092620C1092610C28EE33E040E0D3
:1023F00050E02093630C3093640C4093650C509331
:10240000660C69EA72E07093600C60935F0C8FE376
:102410009AE090936C0C80936B0C83E89AE0909315
:102420006E0C80936D0C85EC90E09093700C809313
:102430006F0C84EC90E09093720C8093710C80ECA4
:1024400090E09093740C8093730C81EC90E09093E7
:10245000760C8093750C86EC90E09093780C8093CA
:10246000770C14E01093790CB3E0B0937A0CA7E0EA
:10247000A0937B0CF5E0F0937C0CE1E0E0937D0C05
:102480001092810C1092800C2093820C3093830C5C
:102490004093840C5093850C70937F0C60937E0C5A
:1024A00087EC9AE090938B0C80938A0C8BE09BE0F6
:1024B00090938D0C80938C0C8DEC90E090938F0C0E
:1024C00080938E0C8CEC90E09093910C8093900C08
:1024D00088EC90E09093930C8093920C89EC90E0C0
:1024E0009093950C8093940C8EEC90E09093970CC5
:1024F0008093960C1093980CB093990CA0939A0C1F
:10250000F0939B0CE0939C0C1092A00C10929F0CEB
:102510002093A10C3093A20C4093A30C5093A40CD5
:1025200070939E0C60939D0C8FE49BE09093AA0C9B
:102530008093A90C83E99BE09093AC0C8093AB0C47
:1025400085ED90E09093AE0C8093AD0C84ED90E01F
:102550009093B00C8093AF0C80ED90E09093B20C10
:102560008093B10C81ED90E09093B40C8093B30C08
:1025700086ED90E09093B60C8093B50C1093B70C59
:10258000B093B80CA093B90CF093BA0CE093BB0CC9
:102590001092BF0C1092BE0C2093C00C3093C10C53
:1025A0004093C20C5093C30C7093BD0C6093BC0C51
:1025B00087ED9BE09093C90C8093C80C8BE19CE065
:1025C0009093CB0C8093CA0C85E391E09093CD0C53
:1025D0008093CC0C84E391E09093CF0C8093CE0C4D
:1025E00080E391E09093D10C8093D00C81E391E053
:1025F0009093D30C8093D20C86E391E09093D50C0A
:102600008093D40C1093D60CB093D70CA093D80C15
:10261000F093D90CE093DA0C1F9108950895CF92AE
:10262000DF92EF92FF920F931F93CF93DF937C0182
:102630006B018A01C0E0D0E00FC0D6016D916D0141
:10264000D701ED91FC910190F081E02DC701199522
:10265000C80FD91F015010400115110571F7CE01A7
:10266000DF91CF911F910F91FF90EF90DF90CF906E
:102670000895EF92FF920F931F938C01DC01ED916F
:10268000FC910190F081E02D6DE019957C01D8015D
:10269000ED91FC910190F081E02DC8016AE019955F
:1026A0009C012E0D3F1DC9011F910F91FF90EF90CE
:1026B0000895EF92FF920F931F937C01DC01ED913F
:1026C000FC910190F081E02D19958C01C7010E94C9
:1026D0003913080F191FC8011F910F91FF90EF9038
:1026E0000895CF93DF93DB010D900020E9F7119758
:1026F000A61BB70BEC01E881F9810280F381E02D84
:10270000AD011995DF91CF9108950E94711308953D
:10271000EF92FF920F931F937C010E9471138C0123
:10272000C7010E943913080F191FC8011F910F918B
:10273000FF90EF9008952F923F924F925F926F9289
:102740007F928F929F92AF92BF92CF92DF92EF9241
:10275000FF920F931F93DF93CF93CDB7DEB73B016B
:102760004C0119012A016E897F89888D998D6A191A
:102770007B098C099D09621A730A840A950AA401CF
:1027800093010E94A930E218F30804091509A80171
:1027900097010E9411312A0D3B1D4C1D5D1DB90191
:1027A000CA01CF91DF911F910F91FF90EF90DF90C1
:1027B000CF90BF90AF909F908F907F906F905F90E1
:1027C0004F903F902F900895FC011382128289EB65
:1027D00092E09183808375836483578346837187F6
:1027E000608753874287158A158614861786168652
:1027F00021E0248B8FEF9FEF938B828B918B808BCB
:10280000268B08952F923F924F925F926F927F9204
:102810008F929F92AF92BF92CF92DF92EF92FF92F0
:102820000F931F93DF93CF9300D00F92CDB7DEB7F6
:102830003C017C836B836A015901FA82E98222247C
:1028400033249801241B350B37FF03C030952195A5
:102850003F4FC5014B815C81841B950B97FF03C0E3
:10286000909581959F4F821793075CF481E0282E05
:10287000312CC601CB80DC809C838B83C801850111
:102880005C018B819C81A816B90644F4C501AB801C
:10289000BC809C838B83C80186016C012501AB81C0
:1028A000BC814A1A5B0A7801EC18FD08F7FE04C0E7
:1028B000F094E194F108F394C016D10624F0882432
:1028C0008A94982C03C0B1E08B2E912CC20162E057
:1028D00070E00E94DC308B0125C0D301ED91FC91AA
:1028E0002114310441F00480F581E02DC301B601CB
:1028F0004B815C8107C00480F581E02DC3016B81B1
:102900007C81A60129813A8119950E191F0917FFAB
:1029100004C0C80CD91C040D151DEB81FC81319637
:10292000FC83EB834B815C81A416B506B4F60F9053
:102930000F900F900F90CF91DF911F910F91FF900B
:10294000EF90DF90CF90BF90AF909F908F907F904F
:102950006F905F904F903F902F9008954F925F92AD
:102960006F927F928F929F92AF92BF92CF92DF929F
:10297000EF92FF920F931F936C015B014A013901A3
:102980002801DC01ED91FC910284F385E02D8701A3
:102990001995D601ED91FC91A40141505040440D90
:1029A000551D0284F385E02DC601B50193011995EB
:1029B000D601ED91FC910084F185E02DC601B501B1
:1029C000A40192011995D601ED91FC910894A108FA
:1029D000B108A60CB71C0084F185E02DC601B50135
:1029E000A401920119951F910F91FF90EF90DF9034
:1029F000CF90BF90AF909F908F907F906F905F909F
:102A00004F900895CF92DF92EF92FF920F931F9312
:102A1000DC016B017801ED91FC918A0101501040BD
:102A2000020F131F0680F781E02D960119951F9163
:102A30000F91FF90EF90DF90CF900895CF92DF92AB
:102A4000EF92FF920F931F93DC016A01C901780195
:102A5000ED91FC9111979B0121503040280F391FB7
:102A60000680F781E02DCD01860119951F910F9108
:102A7000FF90EF90DF90CF9008956F927F928F92AA
:102A80009F92AF92BF92CF92DF92EF92FF920F93FD
:102A90001F93CF93DF935C013A0169014801EB0179
:102AA000C60ED71E0DC0D501ED91FC910084F185B5
:102AB000E02DC501BE01A30194018701199521965E
:102AC000CC15DD0584F3DF91CF911F910F91FF901D
:102AD000EF90DF90CF90BF90AF909F908F907F90BE
:102AE0006F900895EF92FF920F931F93FC017B016B
:102AF000A081B18120853185028513851E960D90B8
:102B0000BC91A02D60E070E040E050E0FD0119951F
:102B10001F910F91FF90EF9008952F923F924F9247
:102B20005F926F927F928F929F92AF92BF92CF925D
:102B3000DF92EF92FF920F931F93DF93CF93CDB766
:102B4000DEB72F970FB6F894DEBF0FBECDBF5C0186
:102B50005E834D8318870F83FA86E986CB86DC0176
:102B600018968D919C911997681779070CF0A4C05D
:102B70001A968D919C911B97481759070CF09CC091
:102B8000EC2DF0E0FF87EE87CF01880F991F8E0FA5
:102B90009F1F880F991F860F971F181619060CF094
:102BA0008BC0CF01F3E0880F991FFA95E1F7840FEE
:102BB000951F181619060CF07FC085E0289FA0010C
:102BC00011245A8349832B011B011C825C815530DF
:102BD00011F480E005C0E981FA81EC5FFD4F84913A
:102BE0002C863D866D807E8043011B82C82EDD24AD
:102BF00080FF1CC0D501ED91FC91BB85B13049F43B
:102C00000480F581E02DC501B201A3012F81388533
:102C100022C00684F785E02DC5016C857D85A40161
:102C20002E853F858901EF80F88423C0E985FA85E8
:102C30002F813885E217F307E9F0D501ED91FC917A
:102C4000BB85B13051F40480F581E02DC501B2019E
:102C5000A30129853A8519950DC00684F785E02DD5
:102C6000C5016C857D85A4012E853F858901E98498
:102C7000FA841995EB81EF5FEB832E853F85820EF9
:102C8000931E0894611C711CE83021F0D594C79400
:102C90008C2DACCF3C813F5F3C834E855F85240EFD
:102CA000351E0894411C511C89819A8101969A8392
:102CB0008983363009F08ACF2F960FB6F894DEBF9D
:102CC0000FBECDBFCF91DF911F910F91FF90EF907D
:102CD000DF90CF90BF90AF909F908F907F906F903C
:102CE0005F904F903F902F900895CF92EF92FF9278
:102CF0000F931F93CF93DF93EC01262F6A3061F47B
:102D00002C8930E003E0220F331F0A95E1F78E850E
:102D10009F85820F931F37C06D30C9F16C857D850B
:102D20004E855F8508891989EA88FB88CC880E94CE
:102D30008D152C8986E0289FB00111248C859D85F6
:102D4000680F791F7D876C878E89882301F1422F58
:102D500050E08AEF9FEF9C01429FC001439F900D7E
:102D6000529F900D112428853985820F931F861755
:102D700097076CF413E0440F551F1A95E1F78E8501
:102D80009F85840F951F9F878E871D861C8681E0F7
:102D900090E0DF91CF911F910F91FF90EF90CF9036
:102DA0000895FC0175876487578746870895FC015D
:102DB000718B608B538B428B0895FC01668B089559
:102DC0000895DC0158968C915897882329F06EBDA0
:102DD0000DB407FEFDCF089530E840E050E070E00C
:102DE000832F90E0862397235996ED91FC915A9773
:102DF00096962C919697892B21F08081822B808347
:102E000004C080812095282320835B96ED91FC915E
:102E10005C97808197969C919797892B80835B968E
:102E2000ED91FC915C97908197968C919797809506
:102E30008923808336954F5F5F4F4830510581F677
:102E400008950F931F938C01DC015F96ED91FC9127
:102E50009097908199968C919997809589238083FA
:102E60005D96ED91FC915E97908198968C918095FE
:102E700089238083C8010E94E116D8015D96ED91F7
:102E8000FC915E97808198969C91892B80831F91FD
:102E90000F9108950F931F938C01DC015F96ED91C4
:102EA000FC919097808199969C919997892B80832A
:102EB0005D96ED91FC915E97908198968C918095AE
:102EC00089238083C8010E94E116D8015D96ED91A7
:102ED000FC915E97808198969C91892B80831F91AD
:102EE0000F910895CF92DF92EF92FF920F931F936D
:102EF0007C01162FC42ED22E6AE20E942117C70130
:102F000060E00E944A17F70162A5610FC7010E94A5
:102F10004A17C70160E00E944A17F70162A56D0DCC
:102F2000C7010E944A17C7016BE20E942117C7011F
:102F300060E00E944A17F70163A56C0DC7010E946B
:102F40004A17C70160E00E944A17F70163A5600FA6
:102F5000C7010E944A17C7016CE20E9421171F9106
:102F60000F91FF90EF90DF90CF900895FF920F9315
:102F70001F938C01F62E672FDC015F96ED91FC917B
:102F80009097808199969C919997892B80835D96E3
:102F9000ED91FC915E97908198968C918095892314
:102FA0008083C8010E94E116C8016F2D0E94E116BE
:102FB000D8015D96ED91FC915E97808198969C91E9
:102FC000892B80831F910F91FF900895FF920F939B
:102FD0001F93CF93DF93EC01F22E132F77FD2EC0BA
:102FE00088859985681779074CF557FD27C08A852C
:102FF0009B854817590714F5262F2F5F042F0F5F65
:10300000CE010E947217EF8DF8A1808199A5892BBE
:103010008083ED8DFE8D908188A5809589238083A6
:10302000CE01612F0E94E116CE016F2D0E94E116A4
:10303000ED8DFE8D808198A5892B8083DF91CF91C6
:103040001F910F91FF900895DF92EF92FF920F93DF
:103050001F93CF93DF93EC01FB017901D02E88857C
:10306000998568177907D4F52A853B854217530758
:10307000ACF5C701840F951F281739071CF4790197
:10308000E41AF50A042F01500E0DCE016E2F2E2FDB
:103090000E947217EF8DF8A1808199A5892B8083FA
:1030A000ED8DFE8D908188A580958923808308C051
:1030B000CE01612F0E94E116CE016D2D0E94E11616
:1030C0000894E108F1088FEFE8168FEFF80681F712
:1030D000ED8DFE8D808198A5892B8083DF91CF9126
:1030E0001F910F91FF90EF90DF900895DF92EF9284
:1030F000FF920F931F93CF93DF93EC01FA017901B5
:10310000D02E2885398562177307D4F58A859B856B
:1031100048175907ACF5C701860F971F28173907BD
:103120001CF47901E61AF70A262F21502E0DCE0144
:103130004E2F0E2F0E947217EF8DF8A1808199A556
:10314000892B8083ED8DFE8D908188A580958923C4
:10315000808308C0CE01612F0E94E116CE016D2D43
:103160000E94E1160894E108F1088FEFE8168FEF4E
:10317000F80681F7ED8DFE8D808198A5892B8083DF
:10318000DF91CF911F910F91FF90EF90DF90089505
:10319000EF92FF920F931F93FC017B01A081B181FD
:1031A00020853185028513851E960D90BC91A02D3A
:1031B00060E070E040E050E0FD0119951F910F9133
:1031C000FF90EF900895AF92BF92CF92DF92EF926F
:1031D000FF920F931F93CF93DF936C015901E80186
:1031E000DC0118962D913C911997621773070CF02A
:1031F00057C01A96ED91FC911B974E175F070CF084
:103200004FC0C501860F971F281739071CF45901B5
:10321000A61AB70ACE01840F951FE817F9071CF408
:10322000EF01C41BD50B262F21502A0D042F01506E
:103230000C0FC6010E947217D6015F96ED91FC91AA
:103240009097808199969C919997892B80835D9620
:10325000ED91FC915E97908198968C918095892351
:1032600080838E010EC0C6016F2D0E94E116C6013B
:103270006E2D0E94E11621971C161D06A4F3015025
:1032800010401016110614F4E501F6CFD6015D9634
:10329000ED91FC915E97808198969C91892B80831B
:1032A000DF91CF911F910F91FF90EF90DF90CF9022
:1032B000BF90AF900895662311F460E201C061E20F
:1032C0000E9421170895AF92BF92CF92DF92EF92A2
:1032D000FF920F931F93CF93DF935C01FB01EB01F0
:1032E0002196D49031C08E010F5F1F4FFE01649173
:1032F000C5010E94211778010894E11CF11CF80116
:10330000C4900C2D0F77E701102F08C0FE01219605
:10331000E491C5016E2F0E944A1711501123B1F795
:10332000E701C00FD11DC7FE0EC0FE018491682FBA
:1033300070E06F3F710511F464EF71E0219680E059
:1033400090E00E94180DDA94DD2069F6DF91CF91AC
:103350001F910F91FF90EF90DF90CF90BF90AF90B3
:1033600008950F931F93CF93DF93EC018B011BA65E
:103370001AA68AA161E00E94D30D89A161E00E9492
:10338000D30DE9A14E2F50E0FA01EE5CFE4FE4911F
:10339000F0E0EE0FFF1FE250FF4F859194919E8F5A
:1033A0008D8FEAA12E2F30E0F901EE5CFE4FE49103
:1033B000F0E0EE0FFF1FE250FF4F8591949198A32C
:1033C0008F8F48585E4FFA01849188A728583E4F46
:1033D000F901849189A7888D882361F00E94242FA8
:1033E00080E00E94132F81E00E94052F80E00E9460
:1033F0000E2F3DC08DA161E00E94D30D8CA161E034
:103400000E94D30DEDA14E2F50E0FA01EE5CFE4F6D
:10341000E491F0E0EE0FFF1FE250FF4FA591B49151
:10342000BC8FAB8FECA12E2F30E0F901EE5CFE4F8C
:10343000E491F0E0EE0FFF1FE250FF4F8591949171
:103440009A8F898F48585E4FFA0194919FA328580C
:103450003E4FF90184918EA38C91909598239C9373
:10346000E98DFA8D90818EA1809589238083ED8DE1
:10347000FE8D908188A58095892380838BA18823E8
:1034800009F161E00E94D30D8BA161E00E94860EDC
:1034900064EF71E080E090E00E94180D8BA160E085
:1034A0000E94860E64EF71E080E090E00E94180DAB
:1034B0008BA161E00E94860E64EF71E080E090E0F5
:1034C0000E94180D0115110521F0CE01B8010E94CE
:1034D0006319DF91CF911F910F9108951F93CF939F
:1034E000DF93EC01162F6FEF76E00E94B1191123E4
:1034F00051F4CE016AE377E00E94631982E08AA763
:1035000081E08BA705C0CE0167E477E00E946319D4
:10351000CE0164E577E00E946319123041F4CE01D8
:1035200066E30E942117CE0160EC0E944A171F8BB0
:10353000DF91CF911F910895DF92EF92FF920F9349
:103540001F938C01F62EE42ED22E60E870E040EA44
:1035500050E00E94E41381ED92E0F80191838083B2
:10356000F1A2E2A2D3A281E0808F15A214A21F9142
:103570000F91FF90EF90DF900895FC01138212826B
:1035800088EE93E0A0E0B0E084839583A683B783C0
:1035900089EE92E091838083128E118E14860895B5
:1035A000FC0189EE92E0918380830895FC01A18D56
:1035B000B28D109719F420E030E009C0ED91FC9134
:1035C00011970190F081E02DCD0119959C01C90161
:1035D0000895DC015996ED91FC915A97309719F4B2
:1035E00020E030E018C024893589468957898385D1
:1035F0009485A585B685281B390B4A0B5B0B2030BB
:10360000B0E83B07B0E04B07B0E05B0720F02FEFDE
:103610003FE740E050E0C9010895DC015996ED9183
:10362000FC915A97309711F480E0089586818111BA
:1036300081E00895CF93DF93EC01898D9A8D0097F7
:1036400041F00E94E523898D9A8D0E94E02F1A8E09
:10365000198EDF91CF910895FC01818D928D009795
:1036600011F480E008950E94D5220895FC01818D17
:10367000928D009711F00E949B230895FC01818D8B
:10368000928D009719F420E030E003C00E94BC2422
:103690009C01C9010895DF93CF930F92CDB7DEB798
:1036A000FC01818D928D009749F0BE016F5F7F4FC5
:1036B00041E050E00E94BC24019719F02FEF3FEF4A
:1036C00003C08981282F30E0C9010F90CF91DF918D
:1036D0000895EF92FF920F931F93DF93CF930F9272
:1036E000CDB7DEB77C01DC0159968D919C915A973C
:1036F000009719F400E010E01FC0BE016F5F7F4F1C
:1037000041E050E00E94BC24019719F00FEF1FEF39
:1037100013C08981082F10E0D7015996ED91FC91D3
:103720005A97438554856585768541505040604061
:103730007040CF010E94D522C8010F90CF91DF9138
:103740001F910F91FF90EF900895FC01818D928D54
:10375000009719F420E030E003C00E9401279C018B
:10376000C9010895FC01818D928D009719F420E024
:1037700030E003C00E94B9289C01C9010895EF926E
:10378000FF920F931F93CF93DF93EC01F62EE72E5A
:103790008A011B821A8288EE93E0A0E0B0E08C835D
:1037A0009D83AE83BF8389EE92E0998388838EE107
:1037B00090E00E94432F9A8F898F009791F0DC014F
:1037C0008F2D9E2D9C01F9018EE101900D9281506B
:1037D000E1F7CE010C96B8014CE050E00E949A301F
:1037E000188EDF91CF911F910F91FF90EF90089568
:1037F00082E090E0A0E0B0E08093DB0C9093DC0CE2
:10380000A093DD0CB093DE0C1092F20C1092FC0C25
:103810001092FB0C8BEF92E09093FA0C8093F90CD2
:103820001092FF0C10921C0D10921D0D1092200D85
:103830001092220D08952F923F924F925F926F92B5
:103840007F928F929F92AF92BF92CF92DF92EF9230
:10385000FF920F931F93DF93CF93CDB7DEB7C95479
:10386000D0400FB6F894DEBF0FBECDBF582E492E04
:10387000FB013A01190180A191A1998B888B2BEF53
:1038800032E03F872E8782A18A8B83A18B8B84A114
:103890008C8B85A196A1A7A1B0A58D8B9E8BAF8B9C
:1038A000B88F81A592A5A3A5B4A5898F9A8FAB8F58
:1038B000BC8F85A596A5A7A5B0A98D8F9E8FAF8F2C
:1038C000B8A381A989A382A993A9A4A9B5A98AA308
:1038D0009BA3ACA3BDA386A997A9A0ADB1AD8EA3B0
:1038E0009FA3A8A7B9A782AD93AD9BA78AA71FA640
:1038F0001EA63DA72CA71AAA7A018E01025F1F4FB0
:103900003CE2A32EB12CAC0EBD1E4E010894811CCE
:10391000911C35C0D7018C918F3221F40894E11CA1
:10392000F11C2DC0422F4E194D3008F04CE0C42E32
:10393000DD24C401B701A6010E949A30F401EC0D08
:10394000FD1D1082C5010E94E523C501B801A40137
:1039500021E00E943929882351F4E52DF42D1382AA
:1039600012828BEF92E09183808316826AC0EC0C06
:10397000FD1CC8010E94E523C50158018C01C70147
:103980006FE270E00E9488309C01009719F6E618FB
:10399000F708F101F182E082E52DF42DD8011296AD
:1039A0008D919C911397938382838BEF92E0918307
:1039B000808314968C911497848315968C91159717
:1039C000858316968C911697868317962D913D9137
:1039D0004D915C911A9727833087418752871B96B8
:1039E0002D913D914D915C911E972387348745879A
:1039F00056871F962D913D914D915C915297278747
:103A0000308B418B528B53968C915397838B54966A
:103A10002D913D914D915C915797248B358B468B21
:103A2000578B58962D913D914D915C915B97208FCE
:103A3000318F428F538F5C968D919C915D97958FBE
:103A4000848F852D942DC75BDF4F0FB6F894DEBFB2
:103A50000FBECDBFCF91DF911F910F91FF90EF90DF
:103A6000DF90CF90BF90AF909F908F907F906F909E
:103A70005F904F903F902F9008959F92AF92BF928A
:103A8000CF92DF92EF92FF920F931F93DF93CF932A
:103A9000CDB7DEB7CA57D0400FB6F894DEBF0FBE21
:103AA000CDBFC82E992E8A01D22E43E0A42EB12C70
:103AB000AC0EBD1EC501A8019E012F5F3F4F0E94A5
:103AC0001B1CE980FA80E00EF11EF70180814BEFAC
:103AD00052E02985882309F041C08D819E819CA3F5
:103AE0008BA35AA349A38F818DA388858EA32FA36F
:103AF0008A859B85AC85BD8588A799A7AAA7BBA702
:103B00008E859F85A889B9898CA79DA7AEA7BFA7D9
:103B10008A899B89AC89BD8988AB99ABAAABBBABC1
:103B20008E898CAB8F89988DA98DBA8D8DAB9EAB0C
:103B3000AFABB8AF8B8D9C8DAD8DBE8D89AF9AAF7D
:103B4000ABAFBCAF8F8D98A19EAF8DAF8C2D992D53
:103B5000BE016F5D7F4F45E852E0AAC0FE01EF5BFA
:103B6000FF4F11821082DE01DF9611965C934E9317
:103B7000FE01EB5BFF4F10822223A9F0225022307E
:103B800050F4CD0169EF7CE0A7012D2D0E94392969
:103B9000882389F408C0CD01B501A7012D2D0E940D
:103BA0003929882329F48C2D992D0E94BD1A82C0B1
:103BB000C5010E94E523F6E0DF2259F0FE01ED5A2F
:103BC000FF4F4081518162817381CE01CF960E9467
:103BD000D5229E01235A3F4FFE01EF5BFF4F8081AC
:103BE0009181F901938382838BEF92E091838083AB
:103BF000FE01ED5BFF4F8081F9018483FE01EC5BE8
:103C0000FF4F8081F9018583FE01EB5BFF4F8081CF
:103C1000F9018683FE01EA5BFF4F80819181A281D9
:103C2000B381F90187839087A187B287FE01E65BA4
:103C3000FF4F80819181A281B381F90183879487AD
:103C4000A587B687FE01E25BFF4F80819181A2814B
:103C5000B381F9018787908BA18BB28BFE01EE5A5D
:103C6000FF4F8081F901838BFE01ED5AFF4F808168
:103C70009181A281B381F901848B958BA68BB78B3F
:103C8000FE01E95AFF4F80819181A281B381F90140
:103C9000808F918FA28FB38FFE01E55AFF4F8081F5
:103CA0009181F901958F848F8C2D992DB901A701F0
:103CB0000E94BF1B8C2D992DC658DF4F0FB6F8946C
:103CC000DEBF0FBECDBFCF91DF911F910F91FF904F
:103CD000EF90DF90CF90BF90AF909F900895CF92DC
:103CE000DF92EF920F93CF93DF93EC01362F542F97
:103CF000722FE02E6CE3C62ED12CC80ED91EC60141
:103D000061E0432F252F072F0E945D218823D1F0EA
:103D10000C2FED2ECE01B60141E00E94DA2A882355
:103D200039F4CE01B60140E00E94DA2A882351F02E
:103D3000CE014E96602F7E2D0E941B26882319F0FF
:103D400081E001C080E0DF91CF910F91EF90DF9093
:103D5000CF900895382F8091260D8F3F29F43EBDD6
:103D60000DB407FEFDCF0895F894A091270DB091F2
:103D7000280D5091290D252F2095E0912A0DF091C5
:103D80002B0D40912C0D642F609590E08C91822337
:103D90008C9337FF03C08081842B02C080818623EF
:103DA00080838C91852B8C939F5F983011F0330F1B
:103DB000EDCF00000000000000008C9128232C9320
:103DC000789408958091260D8F3F21F40E94AA1EB9
:103DD0002EB530C0F894E0912A0DF0912B0D808122
:103DE00090912C0D892B8083E091270DF091280D67
:103DF0006091290DA0912D0DB0912E0D80912F0D68
:103E0000482F50E0762F709520E030E08081862B9F
:103E10008083220F8C9190E084239523892B09F0D5
:103E20002160808187238083000000003F5F38305D
:103E300069F77894822F0895FC01673020F086E1BD
:103E4000858380E00895262F30E060FD02C0663053
:103E500019F48DB58E7F02C08DB581608DBD8CB596
:103E60008C7F8CBD4CB522FD02C090E001C092E079
:103E700036952795822F8170842B892B8CBD81E00C
:103E800008950F931F93CF93DF938B010E940A0D28
:103E9000EB010E94E21E8F3F11F481E008C00E94F6
:103EA0000A0D6C1B7D0B6017710798F380E0DF91A2
:103EB000CF911F910F910895FC01848160E00E94D1
:103EC000860E0895FC01848161E00E94860E0895AB
:103ED000CF92DF92EF92FF920F931F93CF93DF93D6
:103EE0007C016A01FC018485882319F40FEF1FEF20
:103EF00030C000E010E040E050E0212F332727FDE4
:103F00003A95F601E40FF51F808190E028273927C4
:103F10003070C901F4E095958795FA95E1F782270D
:103F20009327102F0027082719279C01322F2227BB
:103F30003295307F0227132725E0880F991F2A9595
:103F4000E1F7082719274F5F5F4FF2E040305F0726
:103F5000A1F6862F0E94AA1EC0E0D0E0F601EC0F69
:103F6000FD1F80810E94AA1E219682E0C030D807E2
:103F7000A9F7812F992787FD9A950E94AA1E802F65
:103F80000E94AA1E0E94E21EF70182878F7185306F
:103F900011F481E007C081E1F7018583C7010E9428
:103FA000621F80E0DF91CF911F910F91FF90EF9002
:103FB000DF90CF9008950F931F93CF93DF93EC0181
:103FC0000E940A0D8B0109C00E940A0D601B710B33
:103FD0006D52714010F08FE00AC00E94E21E8A8785
:103FE0008F3F91F38E3F11F481E006C08DE08D8309
:103FF000CE010E94621F80E0DF91CF911F910F914F
:104000000895CF93DF93EC018E81882319F40FC0BC
:104010000E94E21E8F819885019698878F83019771
:1040200082509240A8F3CE010E94621F1E82DF914F
:10403000CF910895DF92EF92FF920F931F93CF934A
:10404000DF93EC01D62E79018A010E940120CE0176
:104050000E945C1FCE016CE271E00E94411F8D2D19
:1040600080640E94AA1E812F9927AA27BB270E943D
:10407000AA1EC801AA27BB270E94AA1EBB27A12FE0
:10408000902F8F2D0E94AA1E8E2D0E94AA1EDD2029
:1040900011F485E906C088E0D81611F487E801C05C
:1040A0008FEF0E94AA1E10E00E94E21E8A8787FFFF
:1040B00002C01150C9F7DF91CF911F910F91FF906E
:1040C000EF90DF900895CF92DF92EF92FF920F93DF
:1040D0001F93CF93DF93EC017A018B0169014115A6
:1040E00051056105710511F482E133C08B85833080
:1040F00039F039E0EE0CFF1C001F111F3A95D1F783
:10410000CE0168E1A80197010E941A20882311F0CE
:1041100084E01FC0CE016EEFA6010E94681F8823B5
:10412000C9F0CE0168E572E00E94411F882311F4B6
:1041300085E10FC0CE016DE020E030E040E050E0CE
:104140000E941A20882321F40E94E21E882379F01D
:1041500084E18D83CE010E94621F80E0DF91CF91C8
:104160001F910F91FF90EF90DF90CF900895CE01B7
:104170000E94621F81E0F2CF6F927F928F929F9296
:10418000AF92BF92CF92DF92EF92FF920F931F9365
:10419000CF93DF93EC015A016B01390148010115FE
:1041A000110509F46AC0C801820F931F8150924023
:1041B00008F05EC08E81882371F088819981AA8180
:1041C000BB81481759076A077B0729F48F819885B7
:1041D0006816790650F5A882B982CA82DB828B857F
:1041E000833039F0E9E0AA0CBB1CCC1CDD1CEA953D
:1041F000D1F7CE0161E1A60195010E941A20882322
:1042000019F083E08D8334C0CE010E94DB1F882328
:1042100079F118861F8281E08E8307C00E94E21E1A
:104220008F819885019698878F838F8198858615D1
:104230009705A0F300E010E008C00E94E21EF7011D
:10424000E00FF11F80830F5F1F4F08151905A8F3BA
:104250002F813885280D391D38872F83898588233C
:1042600019F02050324048F0CE010E94012005C0D4
:10427000CE010E94621F80E001C081E0DF91CF91FA
:104280001F910F91FF90EF90DF90CF90BF90AF9074
:104290009F908F907F906F900895EF92FF920F9371
:1042A0001F93790120E030E000E012E00E94BC2082
:1042B0001F910F91FF90EF900895BF92CF92DF92E0
:1042C000EF92FF920F931F93CF93DF93EC01B62EE3
:1042D0001E2D1B8619861E821D821C864C832093F0
:1042E000300D0093310DE092260D0E940A0D6B01F6
:1042F0008C8161E00E94D30DCE010E94621F1F3F9E
:1043000009F461C08091310D60E00E94D30D80916D
:10431000300D61E00E94D30D8091260D61E00E9476
:10432000D30DE091260D2E2F332727FD3095F9016F
:10433000EE5CFE4FE491F0E0EE0FFF1FE250FF4F06
:10434000859194919093280D8093270D28583E4F86
:10435000F90184918093290DE091300D2E2F3327A0
:1043600027FD3095F901EE5CFE4FE491F0E0EE0F91
:10437000FF1FE250FF4F8591949190932B0D8093F6
:104380002A0D28583E4FF901849180932C0DE0911D
:10439000310D2E2F332727FD3095F901EE5CFE4FAE
:1043A000E491F0E0EE0FFF1FE85EFE4F85919491DF
:1043B00090932E0D80932D0D28583E4FF901849136
:1043C00080932F0D19C082E360E00E94D30D83E338
:1043D00061E00E94D30D84E361E00E94D30D85E388
:1043E00061E00E94D30D85E361E00E94860E83E5C3
:1043F0008CBD8DB58E7F8DBD10E08FEF0E94AA1E03
:104400001F5F1A30D1F7CE010E945C1F09C00E94C5
:104410000A0D6C197D09615D774010F081E05AC08A
:10442000CE0160E020E030E040E050E00E941A2041
:10443000182F8A87813059F7CE0168E02AEA31E0E7
:1044400040E050E00E941A2082FF02C01B870DC08E
:1044500010E00E94E21E8A871F5F1430D1F78A3A6B
:1044600011F082E037C082E08B878B85823021F0AB
:10447000EE24FF2487010FC0E12CF12C012DB0E4C4
:104480001B2F09C00E940A0D6C197D09615D7740E0
:1044900010F088E01FC0CE0167E320E030E040E08C
:1044A00050E00E941A20CE0169E2A80197010E9403
:1044B0001A208A87882331F78B858230F1F4CE0168
:1044C0006AE320E030E040E050E00E941A208823B8
:1044D00039F086E08D83CE010E94621F80E01AC011
:1044E0000E94E21E807C803C11F483E08B870E9456
:1044F000E21E0E94E21E0E94E21ECE010E94621F86
:104500008091260D8F3F11F081E004C0CE016B2D0C
:104510000E941C1FDF91CF911F910F91FF90EF9090
:10452000DF90CF90BF900895CF93DF93EC01DB0134
:1045300080E090E020E2FD01E80FF91F2083019662
:104540008B309105C1F757E040E021C02E3219F0C1
:1045500086EE97E007C05A3019F15AE048E017C0DC
:104560003217F1F0FC01019634913323C9F7541747
:10457000B8F02132A8F02F3798F4822F81568A3173
:1045800008F42052FD01E40FF11D20834F5F2991B3
:104590002223E1F690E08C91803219F091E001C085
:1045A00090E0892FDF91CF9108956F927F928F9243
:1045B0009F92AF92BF92CF92DF92EF92FF920F93B2
:1045C0001F93CF93DF93EC017A018B012E8122237D
:1045D00009F480C08C899D89AE89BF8984179507AD
:1045E000A607B70708F476C085C0E114F1040105F9
:1045F000110549F41F82188619861A861B861C86A7
:104600001D861E8665C02B853C854D855E85EC8D9F
:10461000FD8D858590E00996215030404040504006
:1046200039014A01082E04C09694879477946794C0
:104630000A94D2F72F5F3F4F4F4F5F4F0894E10826
:10464000F108010911095701680104C0D694C79403
:10465000B794A7948A95D2F70894E11CF11C011D28
:10466000111DA614B704C804D90428F0211531057A
:104670004105510549F4888D998DAA8DBB8D8F8395
:104680009887A987BA8716C0A618B708C808D90896
:1046900011C04F81588569857A858C8D9D8D9401D7
:1046A0000E94BB2C0894A108B108C108D108882336
:1046B00031F410C087E0882E912C8C0E9D1EA11421
:1046C000B104C104D10429F7EB86FC860D871E874F
:1046D00081E001C080E0DF91CF911F910F91FF90A9
:1046E000EF90DF90CF90BF90AF909F908F907F9092
:1046F0006F900895223009F078CFE6CFCF93DF9303
:10470000EC01462F6F85788989899A890E949F2AB2
:10471000882319F420E030E00AC08B89282F30E08C
:1047200095E0220F331F9A95E1F72C5C324FC901B7
:10473000DF91CF9108950F931F93CF93DF938C0157
:10474000FC0186818823D9F1858187FF35C0C801A6
:1047500061E00E947E23EC01009789F1F8018681D7
:10476000823040F484899589A689B7898C8F9D8F82
:10477000AE8FBF8FF801808D918D9B8F8A8F808D3A
:10478000918DA28DB38DCD01AA27BB279D8B8C8BDC
:10479000E091320DF091330D309751F0BE016A5E19
:1047A0007F4FCE0148961995888D998D9B8B8A8B6A
:1047B000F80185818F7785830E94402A01C080E0BF
:1047C000DF91CF911F910F910895CF93DF93EC016B
:1047D0000E949B23882311F01E8281E0DF91CF91FC
:1047E00008956F927F928F929F92AF92BF92CF92D5
:1047F000DF92EF92FF920F931F93DF93CF9300D03E
:104800000F92CDB7DEB77C015A016B01DC01169621
:104810008C911697813009F08FC015968C9181FF8D
:104820008BC09EC00097A105B10511F481E085C041
:10483000F7016384748485849684C701B601A50159
:104840000E94D522882309F477C0D7015C968D9108
:104850009C915D97A114B104C104D10489F45896C8
:104860004D915D916D917C915B970E942E2D8823D7
:1048700009F462C0F701108E118E128E138E3DC0A6
:10488000D70117964D915D916D917C911A979E017C
:104890002F5F3F4F0E94BB2C882309F44DC0D701E6
:1048A0005C96ED91FC915D9749815A816B817C8189
:1048B0008789803129F088EF9FEFAFEFBFE004C018
:1048C00088EF9FEFA0E0B0E0481759076A077B0721
:1048D000A0F4CF010E942E2D882371F1F7014781AA
:1048E000508561857285848D958D0FEF1FEF2FEFB9
:1048F0003FE00E941F2C8823F9F0D7015496AD9217
:10490000BD92CD92DC92579715968C911597806841
:1049100015968C93C7010E949B23882369F0B601EA
:10492000A5016A147B048C049D0410F4B401A30156
:10493000C7010E94D52201C080E00F900F900F9018
:104940000F90CF91DF911F910F91FF90EF90DF902B
:10495000CF90BF90AF909F908F907F906F90089571
:10496000F70184899589A689B78984179507A607D1
:10497000B70708F057CFE0CF2F923F924F925F9248
:104980006F927F928F929F92AF92BF92CF92DF925F
:10499000EF92FF920F931F93CF93DF93EC012A01C5
:1049A0008E81882309F4C6C08D8180FFC3C0D8C022
:1049B00025014E185F084B0177E0272E312C2C0E75
:1049C0003D1E3201B1C02B853C854D855E856FEF64
:1049D000A62E61E0B62EA222B3228E8179018A0131
:1049E00099E016950795F794E7949A95D1F7EC8D91
:1049F000FD8D823049F4428D538D648D758D4E0D41
:104A00005F1D601F711F3FC0D480DA94DE20A114A7
:104A1000B104D9F4DD20C9F4211531054105510552
:104A200049F4888D998DAA8DBB8D8F839887A9872E
:104A3000BA870BC04F81588569857A85CF0191016E
:104A40000E94BB2C882309F475C0EC8DFD8D4F812D
:104A5000588569857A854250504060407040058491
:104A600004C0440F551F661F771F0A94D2F786852E
:104A70009785A089B189480F591F6A1F7B1F4D0D6B
:104A8000511D611D711D80E092E08A199B0963012F
:104A90008615970508F46C018D8186FD06C080E0BF
:104AA000C81682E0D80609F073C08091A1029091E7
:104AB000A202A091A302B091A402481759076A0765
:104AC0007B0709F465C08091340F9091350F9501F3
:104AD000860174010E94BC20882361F18C0C9D1C0E
:104AE00012C095012C5C324FA9014C0D5D1DD40103
:104AF000F90102C081918D93E417F507D9F7E21B04
:104B0000F30B8E0E9F1E960140E050E08B859C8536
:104B1000AD85BE85820F931FA41FB51F8B879C8711
:104B2000AD87BE876C187D086114710409F04BCF06
:104B3000A20102C04FEF5FEFCA01DF91CF911F9139
:104B40000F91FF90EF90DF90CF90BF90AF909F902C
:104B50008F907F906F905F904F903F902F9008952F
:104B6000AC88BD88CE88DF88EB84FC840D851E85EB
:104B70009A0140E050E0D601C5018E199F09A00BB3
:104B8000B10B82179307A407B50708F411CF13CF11
:104B9000CB01BA0140E00E949F2A882309F0A1CFEF
:104BA000C9CFCF92DF92EF92FF920F931F93DF93C3
:104BB000CF930F92CDB7DEB76C01FC0186818230B6
:104BC00070F0E384F48405851685C601BE016F5F2D
:104BD0007F4F41E050E00E94BC24019769F020E043
:104BE00030E0C9010F90CF91DF911F910F91FF909D
:104BF000EF90DF90CF900895F60183859485A58589
:104C0000B6854F96A11DB11D83879487A587B6876A
:104C1000F5E016950795F794E794FA95D1F78E2D60
:104C20008F70282F30E0E5E0220F331FEA95E1F77F
:104C30002C5C324FD6CF0F931F93CF93DF93EC01B1
:104C40008B018E81882309F041C0FB018789803167
:104C5000B1F482E08E83188E198E1A8E1B8E808D91
:104C6000918DA0E0B0E045E0880F991FAA1FBB1FFF
:104C70004A95D1F78C8B9D8BAE8BBF8B15C0803244
:104C800029F583E08E83FB01428D538D648D758DF4
:104C9000488F598F6A8F7B8F9E012C5E3F4FC801D2
:104CA0000E94872D882391F01D8F0C8F81E08D83CA
:104CB0001F82188619861A861B861C861D861E86EC
:104CC0001F86188A198A1A8A1B8A01C080E0DF9120
:104CD000CF911F910F9108951F93CF93DF93EC0114
:104CE000142FE62FF0E075E0EE0FFF1F7A95E1F745
:104CF000EC5CF24F8385817121F0842F827409F07E
:104D000054C06B8B8091A1029091A202A091A3024A
:104D1000B091A4028F87988BA98BBA8B84899589CF
:104D2000A0E0B0E0BC0155274427828D938DA0E020
:104D3000B0E0482B592B6A2B7B2B488F598F6A8FF9
:104D40007B8F838590E088719070009751F4848DFB
:104D5000958DA68DB78D8C8B9D8BAE8BBF8B81E097
:104D60000CC0409711F59E012C5E3F4F8C8D9D8DA0
:104D70000E94872D8823C9F084E08E83812F8F7055
:104D80008D831F82188619861A861B861C861D86AF
:104D90001E8616FD02C081E009C0CE0140E050E051
:104DA00060E070E00E94F12301C080E0DF91CF91CC
:104DB0001F910895CF93DF93EC019C01295F3F4F32
:104DC0008C8D9D8D41E050E060E070E00E94F62DFA
:104DD0008823A1F0888D998DAA8DBB8D0097A105A0
:104DE000B10559F48F819885A985BA85888F998FE7
:104DF000AA8FBB8F8D8180688D8381E0DF91CF91F9
:104E000008952F923F924F925F927F928F929F923E
:104E1000AF92BF92CF92DF92EF92FF920F931F93C8
:104E2000DF93CF9300D000D0CDB7DEB76C01162F43
:104E3000072F5E834D83DC0116968C911697813087
:104E400009F072C115968C9181FF6EC18FC1F60178
:104E5000448955896689778983859485A585B68532
:104E600084179507A607B70731F0C6010E94D5221F
:104E7000882309F459C1812F902F9C0129012D808D
:104E80003E8019C1D6015C96ED91FC915D97DA01E7
:104E9000C90119E0B695A795979587951A95D1F709
:104EA00074807A9478227FEF872E71E0972E822289
:104EB0009322772009F050C08114910409F04CC06E
:104EC000D60117964D915D916D917C911A97411580
:104ED00051056105710581F458968D919D910D9054
:104EE000BC91A02D0097A105B10559F1F60187836A
:104EF0009087A187B28730C0CF019E012F5F3F4FBF
:104F00000E94BB2C882319F41E821D8215C12981A1
:104F10003A814B815C81D6015C96ED91FC915D9765
:104F20008789803129F088EF9FEFAFEFBFE004C0A1
:104F300088EF9FEFA0E0B0E0281739074A075B072A
:104F400030F0C6010E94DA26882331F4EDC0F60164
:104F5000278330874187528780E092E0881999093A
:104F600051018215930508F45C01D6015C96ED9120
:104F7000FC915D971796ED90FD900D911C911A97FD
:104F80008EEF9FEFAFEFBFEFE80EF91E0A1F1B1F5A
:104F9000058404C0EE0CFF1C001F111F0A94D2F7F9
:104FA00086859785A089B189E80EF91E0A1F1B1F07
:104FB000E70CF11C011D111D90E0A91692E0B90645
:104FC00051F58091A1029091A202A091A302B0910B
:104FD000A4028E159F05A007B10761F48FEF9FEF24
:104FE000AFEFBFEF8093A1029093A202A093A30220
:104FF000B093A4028091340F9091350FB801A701AE
:1050000092010E946320882309F48EC0A0E0B2E0E0
:105010004A0E5B1E3EC08114910409F5F6012385FA
:1050200034854585568584899589A689B789281749
:1050300039074A075B0798F00E94402A882309F441
:1050400073C0E092A102F092A2020093A302109317
:10505000A4028091360F81608093360F08C0C8018A
:10506000B70141E00E949F2A882309F45DC09401A2
:105070002C5C324FA9014A0D5B1DD201F90102C01F
:105080008D918193E417F507D9F7E21BF30B4E0ED0
:105090005F1E2A183B08950140E050E0F601838529
:1050A0009485A585B685820F931FA41FB51F83879E
:1050B0009487A587B687D6011B962D913D914D917A
:1050C0005C911E972114310409F0DCCE54968D9129
:1050D0009D910D90BC91A02D82179307A407B50751
:1050E00048F4F601248B358B468B578B858180687D
:1050F000858311C08091320D9091330D892B59F029
:105100008D819E81892B39F0D60115968C9115974A
:10511000806815968C93F601858183FF0DC0C601CA
:105120000E949B23882341F481E0D60114968C933E
:10513000EFEFFFEFFE83ED838D819E8126960FB604
:10514000F894DEBF0FBECDBFCF91DF911F910F91BD
:10515000FF90EF90DF90CF90BF90AF909F908F9097
:105160007F905F904F903F902F90089582FD6FCE7B
:1051700082CEDB010D900020E9F71197A61BB70B3B
:10518000AD010E9401270895DF93CF930F92CDB711
:10519000DEB76983BE016F5F7F4F41E050E00E9440
:1051A00001270F90CF91DF910895DF92EF92FF9248
:1051B0000F931F93CF93DF93EC010E94DA2688238D
:1051C00009F44EC0EC8DFD8DEF80F88409851A85B9
:1051D0008EEF9FEFAFEFBFEFE80EF91E0A1F1B1F08
:1051E000058404C0EE0CFF1C001F111F0A94D2F7A7
:1051F00086859785A089B189E80EF91E0A1F1B1FB5
:10520000D4800894E108F108010911090BC0C80114
:10521000B7016D0D711D811D911D0E947B2A882390
:10522000F9F0DA94DD2099F7EC8DFD8D20E032E085
:1052300040E050E0058404C0220F331F441F551F77
:105240000A94D2F78C899D89AE89BF89820F931FFA
:10525000A41FB51F8C8B9D8BAE8BBF8B81E001C0D3
:1052600080E0DF91CF911F910F91FF90EF90DF9041
:1052700008956F927F928F929F92AF92BF92CF923A
:10528000DF92EF92FF920F931F93DF93CF93CDB7EF
:10529000DEB72B970FB6F894DEBF0FBECDBF5C0113
:1052A0006B01822EDC0116968C91882309F0D2C006
:1052B000CA018E010F5F1F4FB8010E9494228823FC
:1052C00009F4C8C0F601848D958DD5015D969C9337
:1052D0008E935C971782108611861286D6011B96D4
:1052E0001D921D921D921C921E979924380141C057
:1052F000C6010E94D125FC01009709F4ABC085E0EE
:1053000016950795F794E7948A95D1F71E2D1F708F
:105310008081882311F0853ED1F4992091F4D50144
:1053200053961C9353972091A1023091A202409171
:10533000A3025091A4021F962D933D934D935C932D
:1053400052978081882399F49924939421C0C301B2
:10535000BF014BE050E00E947B30009751F4882D54
:105360008073803309F476C0C501612F6FC0992422
:105370009394F601E384F4840585168584899589E0
:10538000A689B789E816F9060A071B0708F4B0CF03
:10539000882D8271823109F05DC0992041F0C501EC
:1053A00061E00E947E238C01009789F453C0D601EE
:1053B00016968C91823009F44DC0C6010E94D52802
:1053C000882309F447C0F501138A04E31DE080E255
:1053D000D8011D928A95E9F7D801FE0131968BE03C
:1053E00001900D928150E1F7E091320DF091330D73
:1053F000309739F0B801625F7F4FC8014096199528
:1054000009C081E298E2F801918B808B80E098E0FE
:1054100097878687D80150968D919C915197539686
:105420009C938E93529759969C938E9358971E9661
:105430008D919C911F9757969C938E9356970E949F
:10544000402A882339F0C501F5016389482D0E945F
:105450006C2601C080E02B960FB6F894DEBF0FBE1D
:10546000CDBFCF91DF911F910F91FF90EF90DF9013
:10547000CF90BF90AF909F908F907F906F90089546
:105480008091360F882399F14091A1025091A20298
:105490006091A3027091A4028091340F9091350F16
:1054A00024E33DE00E946320882319F14091370FE7
:1054B0005091380F6091390F70913A0F4115510595
:1054C0006105710591F08091340F9091350F24E3BF
:1054D0003DE00E946320882361F01092370F109204
:1054E000380F1092390F10923A0F1092360F81E058
:1054F000089580E00895EF92FF920F931F937B0130
:105500008C010E94402A8823A9F0E4E3FDE0119277
:105510008FE0E433F807D9F7E092A102F092A202FB
:105520000093A3021093A4028091360F81608093B0
:10553000360F81E01F910F91FF90EF900895DF9259
:10554000EF92FF920F931F937B018C01D42E8091D9
:10555000A1029091A202A091A302B091A4028E1583
:105560009F05A007B107C1F00E94402A8823D9F007
:105570008091340F9091350FB801A70124E33DE0ED
:105580000E944D21882379F0E092A102F092A202BC
:105590000093A3021093A4028091360F8D2980936B
:1055A000360F81E001C080E01F910F91FF90EF90D6
:1055B000DF9008958F929F92AF92BF92CF92DF9229
:1055C000EF92FF920F931F93CF93DF936C01142FF1
:1055D0007093350F6093340F442321F48824992469
:1055E000540140C0453008F01CC160E070E080E02C
:1055F00090E040E00E949F2A882309F412C1C12F45
:10560000D0E02197FE0174E0EE0FFF1F7A95E1F7DD
:10561000EC5CF24FE254FE4F8081EE5BF14090E093
:105620008F779070892B09F0FCC0E653FE4F808184
:105630009181A281B38184369105A105B10508F459
:10564000F0C064E0CC0FDD1F6A95E1F7C650D14F82
:1056500088809980AA80BB8081149104A104B10440
:1056600009F4DFC0C501B40140E00E949F2A8823ED
:1056700009F4D7C080913F0D9091400D8050924029
:1056800009F0CFC02091440D222309F4CAC08091B3
:10569000420D9091430D892B09F4C3C08091410DB7
:1056A000882309F4BEC0F601228B8091410D8483CA
:1056B000158661E070E007C04F5FF60145874150F5
:1056C000483008F0AEC0F6014585848190E09B012A
:1056D000042E02C0220F331F0A94E2F782179307A9
:1056E00059F720914A0D30914B0D2115310519F0D4
:1056F00040E050E008C02091580D3091590D409184
:105700005A0D50915B0DF6012583368347835087F0
:10571000E090420DF090430D00E010E0E80CF91C21
:105720000A1D1B1DE38AF48A058B168B8091450D9B
:105730009091460D918F808F6091440D70E080E0D4
:1057400090E00E94A9306E0D7F1D801F911FF60111
:10575000628F738F848F958F2091450D3091460D08
:1057600055E0220F331F5A95E1F721503E4F232F6A
:105770003327269540E050E0260F371F481F591F5A
:1057800026873787408B518B8091470D9091480D2C
:10579000009719F0A0E0B0E008C08091540D9091FE
:1057A000550DA091560DB091570D85017401E21A67
:1057B000F30A040B150BA8019701280F391F4A1F84
:1057C0005B1FF601058404C05695479537952795CC
:1057D0000A94D2F72187328743875487253FFFE019
:1057E0003F07F0E04F07F0E05F0710F48CE006C0E1
:1057F000255F3F4F4040504028F480E1F601878B01
:1058000081E010C08091600D9091610DA091620DBA
:10581000B091630DF601828F938FA48FB58F80E2D4
:10582000EECF80E0DF91CF911F910F91FF90EF902D
:10583000DF90CF90BF90AF909F908F9008954F9240
:105840005F926F927F928F929F92AF92BF92CF9210
:10585000DF92EF92FF920F931F93CF93DF93EC01B0
:105860006A017B012801390142305105610571054A
:1058700008F46FC089859A85AB85BC850196A11D0A
:10588000B11D84179507A607B70708F462C02B89D6
:105890003C894D895E898F89803129F499278F2D24
:1058A0007E2D6D2D09C0C701B60117E0969587952D
:1058B000779567951A95D1F74B015C01820E931E7F
:1058C000A41EB51E8091A1029091A202A091A302F4
:1058D000B091A40288169906AA06BB0639F0C50144
:1058E000B40140E00E949F2A882399F18F8980317A
:1058F00049F4F601F070EE0FFF1FEC5CF24F51829D
:1059000040820DC0F601EF77F070EE0FFF1FEE0F33
:10591000FF1FEC5CF24F4082518262827382809161
:10592000360F81608093360F8A89823080F08D81B6
:105930009E81AF81B885880E991EAA1EBB1E8092DB
:10594000370F9092380FA092390FB0923A0F81E042
:1059500001C080E0DF91CF911F910F91FF90EF90F8
:10596000DF90CF90BF90AF909F908F907F906F907F
:105970005F904F900895CF92DF92EF92FF920F9336
:105980001F93CF93DF93EC017A018B016901898525
:105990009A85AB85BC850196A11DB11D841795071D
:1059A000A607B70708F450C02B893C894D895E894A
:1059B0008F89803129F49927812F702F6F2D09C08D
:1059C000C801B701E7E09695879577956795EA95C1
:1059D000D1F7260F371F481F591F8091A1029091C0
:1059E000A202A091A302B091A402281739074A0786
:1059F0005B0739F0CA01B90140E00E949F2A882361
:105A000019F18F89803159F4F701F070EE0FFF1F03
:105A1000EC5CF24F80819181A0E0B0E00EC0F70114
:105A2000EF77F070EE0FFF1FEE0FFF1FEC5CF24FF1
:105A300080819181A281B381BF70F60180839183BF
:105A4000A283B38381E001C080E0DF91CF911F91F9
:105A50000F91FF90EF90DF90CF900895AF92BF929B
:105A6000CF92DF92EF92FF920F931F93DF93CF932A
:105A700000D00F92CDB7DEB76C017A018B0182E0C6
:105A800090E0A0E0B0E0F60180839183A283B3832D
:105A90005E010894A11CB11CC601B801A7019501C3
:105AA0000E94BB2C882319F1C601B801A70100E0B0
:105AB00010E020E030E00E941F2C8823C1F0E98034
:105AC000FA800B811C81F6018789803129F088EFEB
:105AD0009FEFAFEFBFE004C088EF9FEFA0E0B0E022
